{
  "contractName": "Crowdsale",
  "abi": [
    {
      "inputs": [
        {
          "internalType": "uint256",
          "name": "_cap",
          "type": "uint256"
        },
        {
          "internalType": "uint256",
          "name": "_rate",
          "type": "uint256"
        },
        {
          "internalType": "address",
          "name": "_wallet",
          "type": "address"
        },
        {
          "internalType": "contract ERC20",
          "name": "_token",
          "type": "address"
        }
      ],
      "stateMutability": "nonpayable",
      "type": "constructor"
    },
    {
      "inputs": [
        {
          "internalType": "address",
          "name": "account",
          "type": "address"
        }
      ],
      "name": "AddressInsufficientBalance",
      "type": "error"
    },
    {
      "inputs": [],
      "name": "FailedInnerCall",
      "type": "error"
    },
    {
      "inputs": [
        {
          "internalType": "address",
          "name": "owner",
          "type": "address"
        }
      ],
      "name": "OwnableInvalidOwner",
      "type": "error"
    },
    {
      "inputs": [
        {
          "internalType": "address",
          "name": "account",
          "type": "address"
        }
      ],
      "name": "OwnableUnauthorizedAccount",
      "type": "error"
    },
    {
      "anonymous": false,
      "inputs": [
        {
          "indexed": true,
          "internalType": "address",
          "name": "previousOwner",
          "type": "address"
        },
        {
          "indexed": true,
          "internalType": "address",
          "name": "newOwner",
          "type": "address"
        }
      ],
      "name": "OwnershipTransferred",
      "type": "event"
    },
    {
      "anonymous": false,
      "inputs": [
        {
          "indexed": true,
          "internalType": "address",
          "name": "purchaser",
          "type": "address"
        },
        {
          "indexed": true,
          "internalType": "address",
          "name": "beneficiary",
          "type": "address"
        },
        {
          "indexed": false,
          "internalType": "uint256",
          "name": "value",
          "type": "uint256"
        },
        {
          "indexed": false,
          "internalType": "uint256",
          "name": "amount",
          "type": "uint256"
        }
      ],
      "name": "TokensPurchased",
      "type": "event"
    },
    {
      "inputs": [],
      "name": "cap",
      "outputs": [
        {
          "internalType": "uint256",
          "name": "",
          "type": "uint256"
        }
      ],
      "stateMutability": "view",
      "type": "function"
    },
    {
      "inputs": [
        {
          "internalType": "address",
          "name": "",
          "type": "address"
        }
      ],
      "name": "contributions",
      "outputs": [
        {
          "internalType": "uint256",
          "name": "",
          "type": "uint256"
        }
      ],
      "stateMutability": "view",
      "type": "function"
    },
    {
      "inputs": [],
      "name": "owner",
      "outputs": [
        {
          "internalType": "address",
          "name": "",
          "type": "address"
        }
      ],
      "stateMutability": "view",
      "type": "function"
    },
    {
      "inputs": [],
      "name": "rate",
      "outputs": [
        {
          "internalType": "uint256",
          "name": "",
          "type": "uint256"
        }
      ],
      "stateMutability": "view",
      "type": "function"
    },
    {
      "inputs": [],
      "name": "renounceOwnership",
      "outputs": [],
      "stateMutability": "nonpayable",
      "type": "function"
    },
    {
      "inputs": [],
      "name": "token",
      "outputs": [
        {
          "internalType": "contract ERC20",
          "name": "",
          "type": "address"
        }
      ],
      "stateMutability": "view",
      "type": "function"
    },
    {
      "inputs": [
        {
          "internalType": "address",
          "name": "newOwner",
          "type": "address"
        }
      ],
      "name": "transferOwnership",
      "outputs": [],
      "stateMutability": "nonpayable",
      "type": "function"
    },
    {
      "inputs": [],
      "name": "weiRaised",
      "outputs": [
        {
          "internalType": "uint256",
          "name": "",
          "type": "uint256"
        }
      ],
      "stateMutability": "view",
      "type": "function"
    },
    {
      "stateMutability": "payable",
      "type": "receive"
    },
    {
      "inputs": [
        {
          "internalType": "address",
          "name": "beneficiary",
          "type": "address"
        }
      ],
      "name": "buyTokens",
      "outputs": [],
      "stateMutability": "payable",
      "type": "function"
    },
    {
      "inputs": [],
      "name": "withdrawTokens",
      "outputs": [],
      "stateMutability": "nonpayable",
      "type": "function"
    },
    {
      "inputs": [],
      "name": "withdrawFunds",
      "outputs": [],
      "stateMutability": "nonpayable",
      "type": "function"
    }
  ],
  "bytecode": "0x60806040523480156200001157600080fd5b50604051620018d3380380620018d38339818101604052810190620000379190620005f2565b33600073ffffffffffffffffffffffffffffffffffffffff168173ffffffffffffffffffffffffffffffffffffffff1603620000ad5760006040517f1e4fbdf7000000000000000000000000000000000000000000000000000000008152600401620000a4919062000675565b60405180910390fd5b620000c781620002ab640100000000026401000000009004565b50600084116200010e576040517f08c379a0000000000000000000000000000000000000000000000000000000008152600401620001059062000719565b60405180910390fd5b6000831162000154576040517f08c379a00000000000000000000000000000000000000000000000000000000081526004016200014b90620007b1565b60405180910390fd5b600073ffffffffffffffffffffffffffffffffffffffff168273ffffffffffffffffffffffffffffffffffffffff1603620001c6576040517f08c379a0000000000000000000000000000000000000000000000000000000008152600401620001bd9062000849565b60405180910390fd5b600073ffffffffffffffffffffffffffffffffffffffff168173ffffffffffffffffffffffffffffffffffffffff160362000238576040517f08c379a00000000000000000000000000000000000000000000000000000000081526004016200022f90620008e1565b60405180910390fd5b836001819055508260028190555080600460006101000a81548173ffffffffffffffffffffffffffffffffffffffff021916908373ffffffffffffffffffffffffffffffffffffffff160217905550620002a1826200036f640100000000026401000000009004565b5050505062000903565b60008060009054906101000a900473ffffffffffffffffffffffffffffffffffffffff169050816000806101000a81548173ffffffffffffffffffffffffffffffffffffffff021916908373ffffffffffffffffffffffffffffffffffffffff1602179055508173ffffffffffffffffffffffffffffffffffffffff168173ffffffffffffffffffffffffffffffffffffffff167f8be0079c531659141344cd1fd0a4f28419497f9722a3daafe3b4186f6b6457e060405160405180910390a35050565b620003886200041a640100000000026401000000009004565b600073ffffffffffffffffffffffffffffffffffffffff168173ffffffffffffffffffffffffffffffffffffffff1603620003fd5760006040517f1e4fbdf7000000000000000000000000000000000000000000000000000000008152600401620003f4919062000675565b60405180910390fd5b6200041781620002ab640100000000026401000000009004565b50565b62000433620004d7640100000000026401000000009004565b73ffffffffffffffffffffffffffffffffffffffff1662000462620004df640100000000026401000000009004565b73ffffffffffffffffffffffffffffffffffffffff1614620004d55762000497620004d7640100000000026401000000009004565b6040517f118cdaa7000000000000000000000000000000000000000000000000000000008152600401620004cc919062000675565b60405180910390fd5b565b600033905090565b60008060009054906101000a900473ffffffffffffffffffffffffffffffffffffffff16905090565b600080fd5b6000819050919050565b62000522816200050d565b81146200052e57600080fd5b50565b600081519050620005428162000517565b92915050565b600073ffffffffffffffffffffffffffffffffffffffff82169050919050565b6000620005758262000548565b9050919050565b620005878162000568565b81146200059357600080fd5b50565b600081519050620005a7816200057c565b92915050565b6000620005ba8262000568565b9050919050565b620005cc81620005ad565b8114620005d857600080fd5b50565b600081519050620005ec81620005c1565b92915050565b600080600080608085870312156200060f576200060e62000508565b5b60006200061f8782880162000531565b9450506020620006328782880162000531565b9350506040620006458782880162000596565b92505060606200065887828801620005db565b91505092959194509250565b6200066f8162000568565b82525050565b60006020820190506200068c600083018462000664565b92915050565b600082825260208201905092915050565b7f43726f776473616c653a20636170206d7573742062652067726561746572207460008201527f68616e2030000000000000000000000000000000000000000000000000000000602082015250565b60006200070160258362000692565b91506200070e82620006a3565b604082019050919050565b600060208201905081810360008301526200073481620006f2565b9050919050565b7f43726f776473616c653a2072617465206d75737420626520677265617465722060008201527f7468616e20300000000000000000000000000000000000000000000000000000602082015250565b60006200079960268362000692565b9150620007a6826200073b565b604082019050919050565b60006020820190508181036000830152620007cc816200078a565b9050919050565b7f43726f776473616c653a2077616c6c657420697320746865207a65726f20616460008201527f6472657373000000000000000000000000000000000000000000000000000000602082015250565b60006200083160258362000692565b91506200083e82620007d3565b604082019050919050565b60006020820190508181036000830152620008648162000822565b9050919050565b7f43726f776473616c653a20746f6b656e20697320746865207a65726f2061646460008201527f7265737300000000000000000000000000000000000000000000000000000000602082015250565b6000620008c960248362000692565b9150620008d6826200086b565b604082019050919050565b60006020820190508181036000830152620008fc81620008ba565b9050919050565b610fc080620009136000396000f3fe6080604052600436106100bd576000357c010000000000000000000000000000000000000000000000000000000090048063715018a611610081578063715018a6146101d35780638d8f2adb146101ea5780638da5cb5b14610201578063ec8ac4d81461022c578063f2fde38b14610248578063fc0c546a14610271576100f9565b806324600fc3146100fe5780632c4e722e14610115578063355274ea146101405780634042b66f1461016b57806342e94c9014610196576100f9565b366100f95760006100cc61029c565b90506100f7348273ffffffffffffffffffffffffffffffffffffffff166102c590919063ffffffff16565b005b600080fd5b34801561010a57600080fd5b506101136103c9565b005b34801561012157600080fd5b5061012a61041a565b6040516101379190610ad1565b60405180910390f35b34801561014c57600080fd5b50610155610420565b6040516101629190610ad1565b60405180910390f35b34801561017757600080fd5b50610180610426565b60405161018d9190610ad1565b60405180910390f35b3480156101a257600080fd5b506101bd60048036038101906101b89190610b4f565b61042c565b6040516101ca9190610ad1565b60405180910390f35b3480156101df57600080fd5b506101e8610444565b005b3480156101f657600080fd5b506101ff610458565b005b34801561020d57600080fd5b5061021661029c565b6040516102239190610b8b565b60405180910390f35b61024660048036038101906102419190610b4f565b6105dd565b005b34801561025457600080fd5b5061026f600480360381019061026a9190610b4f565b6106aa565b005b34801561027d57600080fd5b50610286610730565b6040516102939190610c05565b60405180910390f35b60008060009054906101000a900473ffffffffffffffffffffffffffffffffffffffff16905090565b803073ffffffffffffffffffffffffffffffffffffffff1631101561032157306040517fcd7860590000000000000000000000000000000000000000000000000000000081526004016103189190610b8b565b60405180910390fd5b60008273ffffffffffffffffffffffffffffffffffffffff168260405161034790610c51565b60006040518083038185875af1925050503d8060008114610384576040519150601f19603f3d011682016040523d82523d6000602084013e610389565b606091505b50509050806103c4576040517f1425ea4200000000000000000000000000000000000000000000000000000000815260040160405180910390fd5b505050565b6103d1610756565b6104183073ffffffffffffffffffffffffffffffffffffffff16316103f461029c565b73ffffffffffffffffffffffffffffffffffffffff166102c590919063ffffffff16565b565b60025481565b60015481565b60035481565b60056020528060005260406000206000915090505481565b61044c610756565b61045660006107dd565b565b610460610756565b600460009054906101000a900473ffffffffffffffffffffffffffffffffffffffff1673ffffffffffffffffffffffffffffffffffffffff1663a9059cbb6104a661029c565b600460009054906101000a900473ffffffffffffffffffffffffffffffffffffffff1673ffffffffffffffffffffffffffffffffffffffff166370a08231306040518263ffffffff167c010000000000000000000000000000000000000000000000000000000002815260040161051d9190610b8b565b602060405180830381865afa15801561053a573d6000803e3d6000fd5b505050506040513d601f19601f8201168201806040525081019061055e9190610c92565b6040518363ffffffff167c0100000000000000000000000000000000000000000000000000000000028152600401610597929190610cbf565b6020604051808303816000875af11580156105b6573d6000803e3d6000fd5b505050506040513d601f19601f820116820180604052508101906105da9190610d20565b50565b60003490506105ec82826108a1565b6000600254826105fc9190610d7c565b90506106088382610966565b600061061261029c565b905061063d348273ffffffffffffffffffffffffffffffffffffffff166102c590919063ffffffff16565b8373ffffffffffffffffffffffffffffffffffffffff163373ffffffffffffffffffffffffffffffffffffffff167f6faf93231a456e552dbc9961f58d9713ee4f2e69d15f1975b050ef0911053a7b858560405161069c929190610dbe565b60405180910390a350505050565b6106b2610756565b600073ffffffffffffffffffffffffffffffffffffffff168173ffffffffffffffffffffffffffffffffffffffff16036107245760006040517f1e4fbdf700000000000000000000000000000000000000000000000000000000815260040161071b9190610b8b565b60405180910390fd5b61072d816107dd565b50565b600460009054906101000a900473ffffffffffffffffffffffffffffffffffffffff1681565b61075e610ab0565b73ffffffffffffffffffffffffffffffffffffffff1661077c61029c565b73ffffffffffffffffffffffffffffffffffffffff16146107db5761079f610ab0565b6040517f118cdaa70000000000000000000000000000000000000000000000000000000081526004016107d29190610b8b565b60405180910390fd5b565b60008060009054906101000a900473ffffffffffffffffffffffffffffffffffffffff169050816000806101000a81548173ffffffffffffffffffffffffffffffffffffffff021916908373ffffffffffffffffffffffffffffffffffffffff1602179055508173ffffffffffffffffffffffffffffffffffffffff168173ffffffffffffffffffffffffffffffffffffffff167f8be0079c531659141344cd1fd0a4f28419497f9722a3daafe3b4186f6b6457e060405160405180910390a35050565b600073ffffffffffffffffffffffffffffffffffffffff168273ffffffffffffffffffffffffffffffffffffffff1603610910576040517f08c379a000000000000000000000000000000000000000000000000000000000815260040161090790610e6a565b60405180910390fd5b600154816003546109219190610e8a565b1115610962576040517f08c379a000000000000000000000000000000000000000000000000000000000815260040161095990610f0a565b60405180910390fd5b5050565b600254816109749190610f59565b600360008282546109859190610e8a565b925050819055506002548161099a9190610f59565b600560008473ffffffffffffffffffffffffffffffffffffffff1673ffffffffffffffffffffffffffffffffffffffff16815260200190815260200160002060008282546109e89190610e8a565b92505081905550600460009054906101000a900473ffffffffffffffffffffffffffffffffffffffff1673ffffffffffffffffffffffffffffffffffffffff1663a9059cbb83836040518363ffffffff167c0100000000000000000000000000000000000000000000000000000000028152600401610a68929190610cbf565b6020604051808303816000875af1158015610a87573d6000803e3d6000fd5b505050506040513d601f19601f82011682018060405250810190610aab9190610d20565b505050565b600033905090565b6000819050919050565b610acb81610ab8565b82525050565b6000602082019050610ae66000830184610ac2565b92915050565b600080fd5b600073ffffffffffffffffffffffffffffffffffffffff82169050919050565b6000610b1c82610af1565b9050919050565b610b2c81610b11565b8114610b3757600080fd5b50565b600081359050610b4981610b23565b92915050565b600060208284031215610b6557610b64610aec565b5b6000610b7384828501610b3a565b91505092915050565b610b8581610b11565b82525050565b6000602082019050610ba06000830184610b7c565b92915050565b6000819050919050565b6000610bcb610bc6610bc184610af1565b610ba6565b610af1565b9050919050565b6000610bdd82610bb0565b9050919050565b6000610bef82610bd2565b9050919050565b610bff81610be4565b82525050565b6000602082019050610c1a6000830184610bf6565b92915050565b600081905092915050565b50565b6000610c3b600083610c20565b9150610c4682610c2b565b600082019050919050565b6000610c5c82610c2e565b9150819050919050565b610c6f81610ab8565b8114610c7a57600080fd5b50565b600081519050610c8c81610c66565b92915050565b600060208284031215610ca857610ca7610aec565b5b6000610cb684828501610c7d565b91505092915050565b6000604082019050610cd46000830185610b7c565b610ce16020830184610ac2565b9392505050565b60008115159050919050565b610cfd81610ce8565b8114610d0857600080fd5b50565b600081519050610d1a81610cf4565b92915050565b600060208284031215610d3657610d35610aec565b5b6000610d4484828501610d0b565b91505092915050565b7f4e487b7100000000000000000000000000000000000000000000000000000000600052601160045260246000fd5b6000610d8782610ab8565b9150610d9283610ab8565b9250828202610da081610ab8565b91508282048414831517610db757610db6610d4d565b5b5092915050565b6000604082019050610dd36000830185610ac2565b610de06020830184610ac2565b9392505050565b600082825260208201905092915050565b7f43726f776473616c653a2062656e656669636961727920697320746865207a6560008201527f726f206164647265737300000000000000000000000000000000000000000000602082015250565b6000610e54602a83610de7565b9150610e5f82610df8565b604082019050919050565b60006020820190508181036000830152610e8381610e47565b9050919050565b6000610e9582610ab8565b9150610ea083610ab8565b9250828201905080821115610eb857610eb7610d4d565b5b92915050565b7f43726f776473616c653a20636170206578636565646564000000000000000000600082015250565b6000610ef4601783610de7565b9150610eff82610ebe565b602082019050919050565b60006020820190508181036000830152610f2381610ee7565b9050919050565b7f4e487b7100000000000000000000000000000000000000000000000000000000600052601260045260246000fd5b6000610f6482610ab8565b9150610f6f83610ab8565b925082610f7f57610f7e610f2a565b5b82820490509291505056fea264697066735822122067868ead3299bc9670fca0181ef8f96f5fae8278e29ea663ea78b5fe946d819664736f6c63430008140033",
  "immutableReferences": {},
  "source": "// SPDX-License-Identifier: MIT\r\npragma solidity ^0.8.0;\r\n\r\nimport \"@openzeppelin/contracts/token/ERC20/ERC20.sol\";\r\nimport \"@openzeppelin/contracts/access/Ownable.sol\";\r\nimport \"@openzeppelin/contracts/utils/Address.sol\";\r\n\r\ncontract Crowdsale is Ownable {\r\n    using Address for address payable;\r\n\r\n    uint256 public cap;\r\n    uint256 public rate;\r\n    uint256 public weiRaised;\r\n    ERC20 public token;\r\n\r\n    mapping(address => uint256) public contributions;\r\n\r\n    constructor(\r\n        uint256 _cap,\r\n        uint256 _rate,\r\n        address _wallet,\r\n        ERC20 _token\r\n    ) Ownable(msg.sender) {\r\n        require(_cap > 0, \"Crowdsale: cap must be greater than 0\");\r\n        require(_rate > 0, \"Crowdsale: rate must be greater than 0\");\r\n        require(_wallet != address(0), \"Crowdsale: wallet is the zero address\");\r\n        require(address(_token) != address(0), \"Crowdsale: token is the zero address\");\r\n\r\n        cap = _cap;\r\n        rate = _rate;\r\n        token = _token;\r\n\r\n        transferOwnership(_wallet);\r\n    }\r\n\r\n    function _preValidatePurchase(address beneficiary, uint256 weiAmount) internal view {\r\n        require(beneficiary != address(0), \"Crowdsale: beneficiary is the zero address\");\r\n        require(weiRaised + weiAmount <= cap, \"Crowdsale: cap exceeded\");\r\n    }\r\n\r\n    function _processPurchase(address beneficiary, uint256 tokenAmount) internal {\r\n        weiRaised += tokenAmount / rate;\r\n        contributions[beneficiary] += tokenAmount / rate;\r\n        token.transfer(beneficiary, tokenAmount);\r\n    }\r\n\r\n    function buyTokens(address beneficiary) public payable {\r\n        uint256 weiAmount = msg.value;\r\n        _preValidatePurchase(beneficiary, weiAmount);\r\n        uint256 tokens = weiAmount * rate;\r\n        _processPurchase(beneficiary, tokens);\r\n        address payable wallet = payable(owner());\r\n        wallet.sendValue(msg.value);\r\n\r\n        emit TokensPurchased(msg.sender, beneficiary, weiAmount, tokens);\r\n    }\r\n\r\n    function withdrawTokens() public onlyOwner {\r\n        token.transfer(owner(), token.balanceOf(address(this)));\r\n    }\r\n\r\n    function withdrawFunds() public onlyOwner {\r\n        payable(owner()).sendValue(address(this).balance);\r\n    }\r\n\r\n    receive() external payable {\r\n        address payable wallet = payable(owner());\r\n        wallet.sendValue(msg.value);\r\n    }\r\n\r\n    event TokensPurchased(address indexed purchaser, address indexed beneficiary, uint256 value, uint256 amount);\r\n}\r\n",
  "sourcePath": "D:\\Synsoft_Project\\solidy_practise\\contracts\\CrowdFund.sol",
  "compiler": {
    "name": "solc",
    "version": "0.8.20+commit.a1b79de6.Emscripten.clang"
  },
  "schemaVersion": "3.4.16",
  "updatedAt": "2024-07-16T11:14:40.224Z",
  "devdoc": {
    "errors": {
      "AddressInsufficientBalance(address)": [
        {
          "details": "The ETH balance of the account is not enough to perform the operation."
        }
      ],
      "FailedInnerCall()": [
        {
          "details": "A call to an address target failed. The target may have reverted."
        }
      ],
      "OwnableInvalidOwner(address)": [
        {
          "details": "The owner is not a valid owner account. (eg. `address(0)`)"
        }
      ],
      "OwnableUnauthorizedAccount(address)": [
        {
          "details": "The caller account is not authorized to perform an operation."
        }
      ]
    },
    "kind": "dev",
    "methods": {
      "owner()": {
        "details": "Returns the address of the current owner."
      },
      "renounceOwnership()": {
        "details": "Leaves the contract without owner. It will not be possible to call `onlyOwner` functions. Can only be called by the current owner. NOTE: Renouncing ownership will leave the contract without an owner, thereby disabling any functionality that is only available to the owner."
      },
      "transferOwnership(address)": {
        "details": "Transfers ownership of the contract to a new account (`newOwner`). Can only be called by the current owner."
      }
    },
    "version": 1
  },
  "userdoc": {
    "kind": "user",
    "methods": {},
    "version": 1
  }
}