{
  "contractName": "MyCrowdsale",
  "abi": [
    {
      "inputs": [
        {
          "internalType": "contract IERC20",
          "name": "_token",
          "type": "address"
        },
        {
          "internalType": "uint256",
          "name": "_tokenPrice",
          "type": "uint256"
        }
      ],
      "stateMutability": "nonpayable",
      "type": "constructor"
    },
    {
      "inputs": [
        {
          "internalType": "address",
          "name": "owner",
          "type": "address"
        }
      ],
      "name": "OwnableInvalidOwner",
      "type": "error"
    },
    {
      "inputs": [
        {
          "internalType": "address",
          "name": "account",
          "type": "address"
        }
      ],
      "name": "OwnableUnauthorizedAccount",
      "type": "error"
    },
    {
      "anonymous": false,
      "inputs": [
        {
          "indexed": true,
          "internalType": "address",
          "name": "previousOwner",
          "type": "address"
        },
        {
          "indexed": true,
          "internalType": "address",
          "name": "newOwner",
          "type": "address"
        }
      ],
      "name": "OwnershipTransferred",
      "type": "event"
    },
    {
      "inputs": [],
      "name": "owner",
      "outputs": [
        {
          "internalType": "address",
          "name": "",
          "type": "address"
        }
      ],
      "stateMutability": "view",
      "type": "function",
      "constant": true
    },
    {
      "inputs": [],
      "name": "renounceOwnership",
      "outputs": [],
      "stateMutability": "nonpayable",
      "type": "function"
    },
    {
      "inputs": [],
      "name": "token",
      "outputs": [
        {
          "internalType": "contract IERC20",
          "name": "",
          "type": "address"
        }
      ],
      "stateMutability": "view",
      "type": "function",
      "constant": true
    },
    {
      "inputs": [],
      "name": "tokenPrice",
      "outputs": [
        {
          "internalType": "uint256",
          "name": "",
          "type": "uint256"
        }
      ],
      "stateMutability": "view",
      "type": "function",
      "constant": true
    },
    {
      "inputs": [
        {
          "internalType": "address",
          "name": "newOwner",
          "type": "address"
        }
      ],
      "name": "transferOwnership",
      "outputs": [],
      "stateMutability": "nonpayable",
      "type": "function"
    },
    {
      "inputs": [],
      "name": "buyTokens",
      "outputs": [],
      "stateMutability": "payable",
      "type": "function",
      "payable": true
    }
  ],
  "bytecode": "0x60806040523480156200001157600080fd5b5060405162000d9f38038062000d9f833981810160405281019062000037919062000295565b33600073ffffffffffffffffffffffffffffffffffffffff168173ffffffffffffffffffffffffffffffffffffffff1603620000ad5760006040517f1e4fbdf7000000000000000000000000000000000000000000000000000000008152600401620000a49190620002ed565b60405180910390fd5b620000c78162000118640100000000026401000000009004565b5081600160006101000a81548173ffffffffffffffffffffffffffffffffffffffff021916908373ffffffffffffffffffffffffffffffffffffffff1602179055508060028190555050506200030a565b60008060009054906101000a900473ffffffffffffffffffffffffffffffffffffffff169050816000806101000a81548173ffffffffffffffffffffffffffffffffffffffff021916908373ffffffffffffffffffffffffffffffffffffffff1602179055508173ffffffffffffffffffffffffffffffffffffffff168173ffffffffffffffffffffffffffffffffffffffff167f8be0079c531659141344cd1fd0a4f28419497f9722a3daafe3b4186f6b6457e060405160405180910390a35050565b600080fd5b600073ffffffffffffffffffffffffffffffffffffffff82169050919050565b60006200020e82620001e1565b9050919050565b6000620002228262000201565b9050919050565b620002348162000215565b81146200024057600080fd5b50565b600081519050620002548162000229565b92915050565b6000819050919050565b6200026f816200025a565b81146200027b57600080fd5b50565b6000815190506200028f8162000264565b92915050565b60008060408385031215620002af57620002ae620001dc565b5b6000620002bf8582860162000243565b9250506020620002d2858286016200027e565b9150509250929050565b620002e78162000201565b82525050565b6000602082019050620003046000830184620002dc565b92915050565b610a85806200031a6000396000f3fe608060405260043610610072576000357c010000000000000000000000000000000000000000000000000000000090048063715018a6146100775780637ff9b5961461008e5780638da5cb5b146100b9578063d0febe4c146100e4578063f2fde38b146100ee578063fc0c546a14610117575b600080fd5b34801561008357600080fd5b5061008c610142565b005b34801561009a57600080fd5b506100a3610156565b6040516100b09190610613565b60405180910390f35b3480156100c557600080fd5b506100ce61015c565b6040516100db919061066f565b60405180910390f35b6100ec610185565b005b3480156100fa57600080fd5b50610115600480360381019061011091906106bb565b6103fb565b005b34801561012357600080fd5b5061012c610481565b6040516101399190610747565b60405180910390f35b61014a6104a7565b610154600061052e565b565b60025481565b60008060009054906101000a900473ffffffffffffffffffffffffffffffffffffffff16905090565b60003490506000600254670de0b6b3a7640000836101a39190610791565b6101ad9190610802565b9050600081116101f2576040517f08c379a00000000000000000000000000000000000000000000000000000000081526004016101e9906108b6565b60405180910390fd5b80600160009054906101000a900473ffffffffffffffffffffffffffffffffffffffff1673ffffffffffffffffffffffffffffffffffffffff166370a08231306040518263ffffffff167c010000000000000000000000000000000000000000000000000000000002815260040161026a919061066f565b602060405180830381865afa158015610287573d6000803e3d6000fd5b505050506040513d601f19601f820116820180604052508101906102ab9190610902565b10156102ec576040517f08c379a00000000000000000000000000000000000000000000000000000000081526004016102e3906109a1565b60405180910390fd5b600160009054906101000a900473ffffffffffffffffffffffffffffffffffffffff1673ffffffffffffffffffffffffffffffffffffffff1663a9059cbb33836040518363ffffffff167c01000000000000000000000000000000000000000000000000000000000281526004016103659291906109c1565b6020604051808303816000875af1158015610384573d6000803e3d6000fd5b505050506040513d601f19601f820116820180604052508101906103a89190610a22565b506103b161015c565b73ffffffffffffffffffffffffffffffffffffffff166108fc839081150290604051600060405180830381858888f193505050501580156103f6573d6000803e3d6000fd5b505050565b6104036104a7565b600073ffffffffffffffffffffffffffffffffffffffff168173ffffffffffffffffffffffffffffffffffffffff16036104755760006040517f1e4fbdf700000000000000000000000000000000000000000000000000000000815260040161046c919061066f565b60405180910390fd5b61047e8161052e565b50565b600160009054906101000a900473ffffffffffffffffffffffffffffffffffffffff1681565b6104af6105f2565b73ffffffffffffffffffffffffffffffffffffffff166104cd61015c565b73ffffffffffffffffffffffffffffffffffffffff161461052c576104f06105f2565b6040517f118cdaa7000000000000000000000000000000000000000000000000000000008152600401610523919061066f565b60405180910390fd5b565b60008060009054906101000a900473ffffffffffffffffffffffffffffffffffffffff169050816000806101000a81548173ffffffffffffffffffffffffffffffffffffffff021916908373ffffffffffffffffffffffffffffffffffffffff1602179055508173ffffffffffffffffffffffffffffffffffffffff168173ffffffffffffffffffffffffffffffffffffffff167f8be0079c531659141344cd1fd0a4f28419497f9722a3daafe3b4186f6b6457e060405160405180910390a35050565b600033905090565b6000819050919050565b61060d816105fa565b82525050565b60006020820190506106286000830184610604565b92915050565b600073ffffffffffffffffffffffffffffffffffffffff82169050919050565b60006106598261062e565b9050919050565b6106698161064e565b82525050565b60006020820190506106846000830184610660565b92915050565b600080fd5b6106988161064e565b81146106a357600080fd5b50565b6000813590506106b58161068f565b92915050565b6000602082840312156106d1576106d061068a565b5b60006106df848285016106a6565b91505092915050565b6000819050919050565b600061070d6107086107038461062e565b6106e8565b61062e565b9050919050565b600061071f826106f2565b9050919050565b600061073182610714565b9050919050565b61074181610726565b82525050565b600060208201905061075c6000830184610738565b92915050565b7f4e487b7100000000000000000000000000000000000000000000000000000000600052601160045260246000fd5b600061079c826105fa565b91506107a7836105fa565b92508282026107b5816105fa565b915082820484148315176107cc576107cb610762565b5b5092915050565b7f4e487b7100000000000000000000000000000000000000000000000000000000600052601260045260246000fd5b600061080d826105fa565b9150610818836105fa565b925082610828576108276107d3565b5b828204905092915050565b600082825260208201905092915050565b7f4e6f7420656e6f75676820457468657220746f2062757920616e7920746f6b6560008201527f6e73000000000000000000000000000000000000000000000000000000000000602082015250565b60006108a0602283610833565b91506108ab82610844565b604082019050919050565b600060208201905081810360008301526108cf81610893565b9050919050565b6108df816105fa565b81146108ea57600080fd5b50565b6000815190506108fc816108d6565b92915050565b6000602082840312156109185761091761068a565b5b6000610926848285016108ed565b91505092915050565b7f4e6f7420656e6f75676820746f6b656e7320696e2074686520636f6e7472616360008201527f7400000000000000000000000000000000000000000000000000000000000000602082015250565b600061098b602183610833565b91506109968261092f565b604082019050919050565b600060208201905081810360008301526109ba8161097e565b9050919050565b60006040820190506109d66000830185610660565b6109e36020830184610604565b9392505050565b60008115159050919050565b6109ff816109ea565b8114610a0a57600080fd5b50565b600081519050610a1c816109f6565b92915050565b600060208284031215610a3857610a3761068a565b5b6000610a4684828501610a0d565b9150509291505056fea26469706673582212209aa0930a0578b5b7863b60b6e26416ac7469d44f1c3ec7251dd5057aecb6c16064736f6c63430008140033",
  "immutableReferences": {},
  "source": "// SPDX-License-Identifier: MIT\r\npragma solidity ^0.8.0;\r\n\r\nimport \"@openzeppelin/contracts/token/ERC20/IERC20.sol\";\r\nimport \"@openzeppelin/contracts/access/Ownable.sol\";\r\n\r\ncontract MyCrowdsale is Ownable(msg.sender){\r\n    IERC20 public token;\r\n    uint256 public tokenPrice; \r\n\r\n    constructor(IERC20 _token, uint256 _tokenPrice) {\r\n        token = _token;\r\n        tokenPrice = _tokenPrice;\r\n    }\r\n\r\n    function buyTokens() external payable {\r\n        uint256 amount = msg.value;\r\n        uint256 tokens = (amount * 10**18) / tokenPrice;\r\n\r\n        require(tokens > 0, \"Not enough Ether to buy any tokens\");\r\n        require(token.balanceOf(address(this)) >= tokens, \"Not enough tokens in the contract\");\r\n\r\n        token.transfer(msg.sender, tokens);\r\n\r\n        payable(owner()).transfer(amount);\r\n    }\r\n}\r\n",
  "sourcePath": "D:\\Synsoft_Project\\solidy_practise\\contracts\\SynsoftToken.sol",
  "compiler": {
    "name": "solc",
    "version": "0.8.20+commit.a1b79de6.Emscripten.clang"
  },
  "schemaVersion": "3.4.16",
  "updatedAt": "2024-07-16T11:15:39.911Z",
  "networkType": "ethereum",
  "devdoc": {
    "errors": {
      "OwnableInvalidOwner(address)": [
        {
          "details": "The owner is not a valid owner account. (eg. `address(0)`)"
        }
      ],
      "OwnableUnauthorizedAccount(address)": [
        {
          "details": "The caller account is not authorized to perform an operation."
        }
      ]
    },
    "kind": "dev",
    "methods": {
      "owner()": {
        "details": "Returns the address of the current owner."
      },
      "renounceOwnership()": {
        "details": "Leaves the contract without owner. It will not be possible to call `onlyOwner` functions. Can only be called by the current owner. NOTE: Renouncing ownership will leave the contract without an owner, thereby disabling any functionality that is only available to the owner."
      },
      "transferOwnership(address)": {
        "details": "Transfers ownership of the contract to a new account (`newOwner`). Can only be called by the current owner."
      }
    },
    "version": 1
  },
  "userdoc": {
    "kind": "user",
    "methods": {},
    "version": 1
  }
}